{
  "_format": "hh-sol-artifact-1",
  "contractName": "YourContract",
  "sourceName": "contracts/YourContract.sol",
  "abi": [
    {
      "inputs": [
        {
          "internalType": "address",
          "name": "_owner",
          "type": "address"
        }
      ],
      "stateMutability": "nonpayable",
      "type": "constructor"
    },
    {
      "anonymous": false,
      "inputs": [
        {
          "indexed": true,
          "internalType": "uint256",
          "name": "voteId",
          "type": "uint256"
        },
        {
          "indexed": false,
          "internalType": "string",
          "name": "question",
          "type": "string"
        },
        {
          "indexed": false,
          "internalType": "uint256",
          "name": "endTime",
          "type": "uint256"
        }
      ],
      "name": "VoteCreated",
      "type": "event"
    },
    {
      "anonymous": false,
      "inputs": [
        {
          "indexed": true,
          "internalType": "uint256",
          "name": "voteId",
          "type": "uint256"
        },
        {
          "indexed": true,
          "internalType": "address",
          "name": "voter",
          "type": "address"
        },
        {
          "indexed": false,
          "internalType": "bool",
          "name": "voteYes",
          "type": "bool"
        }
      ],
      "name": "Voted",
      "type": "event"
    },
    {
      "anonymous": false,
      "inputs": [
        {
          "indexed": true,
          "internalType": "uint256",
          "name": "voteId",
          "type": "uint256"
        },
        {
          "indexed": false,
          "internalType": "uint256",
          "name": "yesVotes",
          "type": "uint256"
        },
        {
          "indexed": false,
          "internalType": "uint256",
          "name": "noVotes",
          "type": "uint256"
        }
      ],
      "name": "VotingEnded",
      "type": "event"
    },
    {
      "inputs": [
        {
          "internalType": "string",
          "name": "_question",
          "type": "string"
        },
        {
          "internalType": "uint256",
          "name": "_duration",
          "type": "uint256"
        }
      ],
      "name": "createVote",
      "outputs": [],
      "stateMutability": "nonpayable",
      "type": "function"
    },
    {
      "inputs": [
        {
          "internalType": "uint256",
          "name": "_voteId",
          "type": "uint256"
        }
      ],
      "name": "endVote",
      "outputs": [],
      "stateMutability": "nonpayable",
      "type": "function"
    },
    {
      "inputs": [
        {
          "internalType": "uint256",
          "name": "_voteId",
          "type": "uint256"
        }
      ],
      "name": "getVoteResult",
      "outputs": [
        {
          "internalType": "string",
          "name": "question",
          "type": "string"
        },
        {
          "internalType": "uint256",
          "name": "yesVotes",
          "type": "uint256"
        },
        {
          "internalType": "uint256",
          "name": "noVotes",
          "type": "uint256"
        }
      ],
      "stateMutability": "view",
      "type": "function"
    },
    {
      "inputs": [],
      "name": "greeting",
      "outputs": [
        {
          "internalType": "string",
          "name": "",
          "type": "string"
        }
      ],
      "stateMutability": "view",
      "type": "function"
    },
    {
      "inputs": [],
      "name": "owner",
      "outputs": [
        {
          "internalType": "address",
          "name": "",
          "type": "address"
        }
      ],
      "stateMutability": "view",
      "type": "function"
    },
    {
      "inputs": [
        {
          "internalType": "uint256",
          "name": "_voteId",
          "type": "uint256"
        },
        {
          "internalType": "bool",
          "name": "_voteYes",
          "type": "bool"
        }
      ],
      "name": "vote",
      "outputs": [],
      "stateMutability": "nonpayable",
      "type": "function"
    },
    {
      "inputs": [],
      "name": "voteCount",
      "outputs": [
        {
          "internalType": "uint256",
          "name": "",
          "type": "uint256"
        }
      ],
      "stateMutability": "view",
      "type": "function"
    },
    {
      "inputs": [
        {
          "internalType": "uint256",
          "name": "",
          "type": "uint256"
        }
      ],
      "name": "votes",
      "outputs": [
        {
          "internalType": "string",
          "name": "question",
          "type": "string"
        },
        {
          "internalType": "uint256",
          "name": "yesVotes",
          "type": "uint256"
        },
        {
          "internalType": "uint256",
          "name": "noVotes",
          "type": "uint256"
        },
        {
          "internalType": "uint256",
          "name": "endTime",
          "type": "uint256"
        },
        {
          "internalType": "bool",
          "name": "isEnded",
          "type": "bool"
        }
      ],
      "stateMutability": "view",
      "type": "function"
    }
  ],
  "bytecode": "0x60e0604052600660a0908152654255494c442160d01b60c0526000906200002790826200010f565b503480156200003557600080fd5b5060405162000c8738038062000c878339810160408190526200005891620001db565b6001600160a01b03166080526200020d565b634e487b7160e01b600052604160045260246000fd5b600181811c908216806200009557607f821691505b602082108103620000b657634e487b7160e01b600052602260045260246000fd5b50919050565b601f8211156200010a57600081815260208120601f850160051c81016020861015620000e55750805b601f850160051c820191505b818110156200010657828155600101620000f1565b5050505b505050565b81516001600160401b038111156200012b576200012b6200006a565b62000143816200013c845462000080565b84620000bc565b602080601f8311600181146200017b5760008415620001625750858301515b600019600386901b1c1916600185901b17855562000106565b600085815260208120601f198616915b82811015620001ac578886015182559484019460019091019084016200018b565b5085821015620001cb5787850151600019600388901b60f8161c191681555b5050505050600190811b01905550565b600060208284031215620001ee57600080fd5b81516001600160a01b03811681146200020657600080fd5b9392505050565b608051610a5f62000228600039600060e70152610a5f6000f3fe608060405234801561001057600080fd5b50600436106100885760003560e01c8063bfa0fc931161005b578063bfa0fc9314610121578063c638407114610143578063c9d27afe1461015a578063ef690cc01461016d57600080fd5b80634541c8531461008d5780635df81330146100a2578063865df0ad146100cf5780638da5cb5b146100e2575b600080fd5b6100a061009b3660046106b5565b610182565b005b6100b56100b036600461076a565b610269565b6040516100c69594939291906107c9565b60405180910390f35b6100a06100dd36600461076a565b610323565b6101097f000000000000000000000000000000000000000000000000000000000000000081565b6040516001600160a01b0390911681526020016100c6565b61013461012f36600461076a565b610438565b6040516100c693929190610802565b61014c60025481565b6040519081526020016100c6565b6100a0610168366004610827565b6104f6565b610175610611565b6040516100c6919061085c565b6002805490819060006101948361088c565b90915550600090506101a683426108a5565b6040805160a08101825286815260006020808301829052828401829052606083018590526080830182905286825260019052919091208151929350909181906101ef9082610947565b50602082015160018201556040808301516002830155606083015160038301556080909201516004909101805460ff19169115159190911790555182907f524ae7610c7dd0c1b94d8155ea00bc06c2e5e7069c118c88441de4f2970803e69061025b9087908590610a07565b60405180910390a250505050565b600160205260009081526040902080548190610284906108be565b80601f01602080910402602001604051908101604052809291908181526020018280546102b0906108be565b80156102fd5780601f106102d2576101008083540402835291602001916102fd565b820191906000526020600020905b8154815290600101906020018083116102e057829003601f168201915b505050506001830154600284015460038501546004909501549394919390925060ff1685565b6000818152600160205260409020600381015442101561038a5760405162461bcd60e51b815260206004820152601d60248201527f566f74696e672074696d6520686173206e6f7420656e6465642079657400000060448201526064015b60405180910390fd5b600481015460ff16156103d95760405162461bcd60e51b8152602060048201526017602482015276159bdd1a5b99c81a5cc8185b1c9958591e48195b991959604a1b6044820152606401610381565b60048101805460ff19166001908117909155810154600282015460405184927fcea89ec8feb1022162fb57e69a2bb2c4774289bcc281c3e4ff611d3a63ee6e089261042c92918252602082015260400190565b60405180910390a25050565b600081815260016020819052604082209081015460028201548254606094938493909283928390610468906108be565b80601f0160208091040260200160405190810160405280929190818152602001828054610494906108be565b80156104e15780601f106104b6576101008083540402835291602001916104e1565b820191906000526020600020905b8154815290600101906020018083116104c457829003601f168201915b50505050509250935093509350509193909250565b60008281526001602052604090206003810154421061054a5760405162461bcd60e51b815260206004820152601060248201526f159bdd1a5b99c81a185cc8195b99195960821b6044820152606401610381565b600481015460ff16156105995760405162461bcd60e51b8152602060048201526017602482015276159bdd1a5b99c81a5cc8185b1c9958591e48195b991959604a1b6044820152606401610381565b81156105bb576001810180549060006105b18361088c565b91905055506105d3565b6002810180549060006105cd8361088c565b91905055505b6040518215158152339084907ff2913dbe661ee2acc4a046d8fbcdc792373bda34c41c6086484b5345e5785e5f9060200160405180910390a3505050565b6000805461061e906108be565b80601f016020809104026020016040519081016040528092919081815260200182805461064a906108be565b80156106975780601f1061066c57610100808354040283529160200191610697565b820191906000526020600020905b81548152906001019060200180831161067a57829003601f168201915b505050505081565b634e487b7160e01b600052604160045260246000fd5b600080604083850312156106c857600080fd5b823567ffffffffffffffff808211156106e057600080fd5b818501915085601f8301126106f457600080fd5b8135818111156107065761070661069f565b604051601f8201601f19908116603f0116810190838211818310171561072e5761072e61069f565b8160405282815288602084870101111561074757600080fd5b826020860160208301376000602093820184015298969091013596505050505050565b60006020828403121561077c57600080fd5b5035919050565b6000815180845260005b818110156107a95760208185018101518683018201520161078d565b506000602082860101526020601f19601f83011685010191505092915050565b60a0815260006107dc60a0830188610783565b905085602083015284604083015283606083015282151560808301529695505050505050565b6060815260006108156060830186610783565b60208301949094525060400152919050565b6000806040838503121561083a57600080fd5b823591506020830135801515811461085157600080fd5b809150509250929050565b60208152600061086f6020830184610783565b9392505050565b634e487b7160e01b600052601160045260246000fd5b60006001820161089e5761089e610876565b5060010190565b808201808211156108b8576108b8610876565b92915050565b600181811c908216806108d257607f821691505b6020821081036108f257634e487b7160e01b600052602260045260246000fd5b50919050565b601f82111561094257600081815260208120601f850160051c8101602086101561091f5750805b601f850160051c820191505b8181101561093e5782815560010161092b565b5050505b505050565b815167ffffffffffffffff8111156109615761096161069f565b6109758161096f84546108be565b846108f8565b602080601f8311600181146109aa57600084156109925750858301515b600019600386901b1c1916600185901b17855561093e565b600085815260208120601f198616915b828110156109d9578886015182559484019460019091019084016109ba565b50858210156109f75787850151600019600388901b60f8161c191681555b5050505050600190811b01905550565b604081526000610a1a6040830185610783565b9050826020830152939250505056fea264697066735822122031d4b22145d01b566f9cdc3275cc69ec2100253ffcb9de6f18a8bbcc70ef1cc664736f6c63430008140033",
  "linkReferences": {},
  "deployedLinkReferences": {}
}